{
  "contractName": "RetailerRole",
  "abi": [
    {
      "inputs": [],
      "stateMutability": "nonpayable",
      "type": "constructor"
    },
    {
      "anonymous": false,
      "inputs": [
        {
          "indexed": true,
          "internalType": "address",
          "name": "account",
          "type": "address"
        }
      ],
      "name": "RetailerAdded",
      "type": "event"
    },
    {
      "anonymous": false,
      "inputs": [
        {
          "indexed": true,
          "internalType": "address",
          "name": "account",
          "type": "address"
        }
      ],
      "name": "RetailerRemoved",
      "type": "event"
    },
    {
      "inputs": [
        {
          "internalType": "address",
          "name": "account",
          "type": "address"
        }
      ],
      "name": "isRetailer",
      "outputs": [
        {
          "internalType": "bool",
          "name": "",
          "type": "bool"
        }
      ],
      "stateMutability": "view",
      "type": "function",
      "constant": true
    },
    {
      "inputs": [
        {
          "internalType": "address",
          "name": "account",
          "type": "address"
        }
      ],
      "name": "addRetailer",
      "outputs": [],
      "stateMutability": "nonpayable",
      "type": "function"
    },
    {
      "inputs": [],
      "name": "renounceRetailer",
      "outputs": [],
      "stateMutability": "nonpayable",
      "type": "function"
    }
  ],
  "bytecode": "0x608060405234801561001057600080fd5b506100203361002560201b60201c565b6101c7565b61003d81600061008360201b6101341790919060201c565b8073ffffffffffffffffffffffffffffffffffffffff167f71ae26cad02663e3d92efd6ec56031a80d74a20c0ab4183faa8bf262261c9baa60405160405180910390a250565b600073ffffffffffffffffffffffffffffffffffffffff168173ffffffffffffffffffffffffffffffffffffffff1614156100bd57600080fd5b6100cd828261013560201b60201c565b156100d757600080fd5b60018260000160008373ffffffffffffffffffffffffffffffffffffffff1673ffffffffffffffffffffffffffffffffffffffff16815260200190815260200160002060006101000a81548160ff0219169083151502179055505050565b60008073ffffffffffffffffffffffffffffffffffffffff168273ffffffffffffffffffffffffffffffffffffffff16141561017057600080fd5b8260000160008373ffffffffffffffffffffffffffffffffffffffff1673ffffffffffffffffffffffffffffffffffffffff16815260200190815260200160002060009054906101000a900460ff16905092915050565b610407806101d66000396000f3fe608060405234801561001057600080fd5b50600436106100415760003560e01c80635da09b88146100465780638ec4f505146100a0578063db0e6a2f146100e4575b600080fd5b6100886004803603602081101561005c57600080fd5b81019080803573ffffffffffffffffffffffffffffffffffffffff1690602001909291905050506100ee565b60405180821515815260200191505060405180910390f35b6100e2600480360360208110156100b657600080fd5b81019080803573ffffffffffffffffffffffffffffffffffffffff16906020019092919050505061010b565b005b6100ec610129565b005b60006101048260006101e090919063ffffffff16565b9050919050565b610114336100ee565b61011d57600080fd5b61012681610272565b50565b610132336102cc565b565b600073ffffffffffffffffffffffffffffffffffffffff168173ffffffffffffffffffffffffffffffffffffffff16141561016e57600080fd5b61017882826101e0565b1561018257600080fd5b60018260000160008373ffffffffffffffffffffffffffffffffffffffff1673ffffffffffffffffffffffffffffffffffffffff16815260200190815260200160002060006101000a81548160ff0219169083151502179055505050565b60008073ffffffffffffffffffffffffffffffffffffffff168273ffffffffffffffffffffffffffffffffffffffff16141561021b57600080fd5b8260000160008373ffffffffffffffffffffffffffffffffffffffff1673ffffffffffffffffffffffffffffffffffffffff16815260200190815260200160002060009054906101000a900460ff16905092915050565b61028681600061013490919063ffffffff16565b8073ffffffffffffffffffffffffffffffffffffffff167f71ae26cad02663e3d92efd6ec56031a80d74a20c0ab4183faa8bf262261c9baa60405160405180910390a250565b6102e081600061032690919063ffffffff16565b8073ffffffffffffffffffffffffffffffffffffffff167fdb7176e79cffef81cb01767dd0447a0b24bb72ca9778d4b245581086b2a7e6db60405160405180910390a250565b600073ffffffffffffffffffffffffffffffffffffffff168173ffffffffffffffffffffffffffffffffffffffff16141561036057600080fd5b61036a82826101e0565b61037357600080fd5b60008260000160008373ffffffffffffffffffffffffffffffffffffffff1673ffffffffffffffffffffffffffffffffffffffff16815260200190815260200160002060006101000a81548160ff021916908315150217905550505056fea264697066735822122055e63006c61ee2268bbe2004d59ca3aa1120bc57a45b56d20a52db3ffcad36d364736f6c634300060c0033",
  "immutableReferences": {},
  "source": "// SPDX-License-Identifier: MIT\npragma solidity >=0.6.12;\n\nimport \"./Roles.sol\";\n\ncontract RetailerRole {\n    using Roles for Roles.Role;\n\n    event RetailerAdded(address indexed account);\n    event RetailerRemoved(address indexed account);\n\n    Roles.Role private retailers;\n\n    constructor() public {\n        _addRetailer(msg.sender);\n    }\n\n    modifier onlyRetailer() {\n        require(isRetailer(msg.sender));\n        _;\n    }\n\n    function isRetailer(address account) public view returns (bool) {\n        return retailers.has(account);\n    }\n\n    function addRetailer(address account) public onlyRetailer {\n        _addRetailer(account);\n    }\n\n    function renounceRetailer() public {\n        _removeRetailer(msg.sender);\n    }\n\n    function _addRetailer(address account) internal {\n        retailers.add(account);\n        emit RetailerAdded(account);\n    }\n\n    function _removeRetailer(address account) internal {\n        retailers.remove(account);\n        emit RetailerRemoved(account);\n    }\n}\n",
  "sourcePath": "/Users/ngolub/workspace/learn/udacity/blockchain-dev/nd1309-Project-6b/contracts/coffeeaccesscontrol/RetailerRole.sol",
  "compiler": {
    "name": "solc",
    "version": "0.6.12+commit.27d51765.Emscripten.clang"
  },
  "schemaVersion": "3.3.3",
  "updatedAt": "2021-04-22T09:14:48.629Z",
  "networkType": "ethereum",
  "devdoc": {
    "kind": "dev",
    "methods": {},
    "version": 1
  },
  "userdoc": {
    "kind": "user",
    "methods": {},
    "version": 1
  }
}