{
  "contractName": "SupplyChain",
  "abi": [
    {
      "inputs": [],
      "stateMutability": "payable",
      "type": "constructor",
      "payable": true
    },
    {
      "anonymous": false,
      "inputs": [
        {
          "indexed": true,
          "internalType": "address",
          "name": "account",
          "type": "address"
        }
      ],
      "name": "ConsumerAdded",
      "type": "event"
    },
    {
      "anonymous": false,
      "inputs": [
        {
          "indexed": true,
          "internalType": "address",
          "name": "account",
          "type": "address"
        }
      ],
      "name": "ConsumerRemoved",
      "type": "event"
    },
    {
      "anonymous": false,
      "inputs": [
        {
          "indexed": true,
          "internalType": "address",
          "name": "account",
          "type": "address"
        }
      ],
      "name": "DistributorAdded",
      "type": "event"
    },
    {
      "anonymous": false,
      "inputs": [
        {
          "indexed": true,
          "internalType": "address",
          "name": "account",
          "type": "address"
        }
      ],
      "name": "DistributorRemoved",
      "type": "event"
    },
    {
      "anonymous": false,
      "inputs": [
        {
          "indexed": true,
          "internalType": "address",
          "name": "account",
          "type": "address"
        }
      ],
      "name": "FarmerAdded",
      "type": "event"
    },
    {
      "anonymous": false,
      "inputs": [
        {
          "indexed": true,
          "internalType": "address",
          "name": "account",
          "type": "address"
        }
      ],
      "name": "FarmerRemoved",
      "type": "event"
    },
    {
      "anonymous": false,
      "inputs": [
        {
          "indexed": false,
          "internalType": "uint256",
          "name": "upc",
          "type": "uint256"
        }
      ],
      "name": "ForSale",
      "type": "event"
    },
    {
      "anonymous": false,
      "inputs": [
        {
          "indexed": false,
          "internalType": "uint256",
          "name": "upc",
          "type": "uint256"
        }
      ],
      "name": "Harvested",
      "type": "event"
    },
    {
      "anonymous": false,
      "inputs": [
        {
          "indexed": false,
          "internalType": "uint256",
          "name": "upc",
          "type": "uint256"
        }
      ],
      "name": "Packed",
      "type": "event"
    },
    {
      "anonymous": false,
      "inputs": [
        {
          "indexed": false,
          "internalType": "uint256",
          "name": "upc",
          "type": "uint256"
        }
      ],
      "name": "Processed",
      "type": "event"
    },
    {
      "anonymous": false,
      "inputs": [
        {
          "indexed": false,
          "internalType": "uint256",
          "name": "upc",
          "type": "uint256"
        }
      ],
      "name": "Purchased",
      "type": "event"
    },
    {
      "anonymous": false,
      "inputs": [
        {
          "indexed": false,
          "internalType": "uint256",
          "name": "upc",
          "type": "uint256"
        }
      ],
      "name": "Received",
      "type": "event"
    },
    {
      "anonymous": false,
      "inputs": [
        {
          "indexed": true,
          "internalType": "address",
          "name": "account",
          "type": "address"
        }
      ],
      "name": "RetailerAdded",
      "type": "event"
    },
    {
      "anonymous": false,
      "inputs": [
        {
          "indexed": true,
          "internalType": "address",
          "name": "account",
          "type": "address"
        }
      ],
      "name": "RetailerRemoved",
      "type": "event"
    },
    {
      "anonymous": false,
      "inputs": [
        {
          "indexed": false,
          "internalType": "uint256",
          "name": "upc",
          "type": "uint256"
        }
      ],
      "name": "Shipped",
      "type": "event"
    },
    {
      "anonymous": false,
      "inputs": [
        {
          "indexed": false,
          "internalType": "uint256",
          "name": "upc",
          "type": "uint256"
        }
      ],
      "name": "Sold",
      "type": "event"
    },
    {
      "inputs": [
        {
          "internalType": "address",
          "name": "account",
          "type": "address"
        }
      ],
      "name": "addConsumer",
      "outputs": [],
      "stateMutability": "nonpayable",
      "type": "function"
    },
    {
      "inputs": [
        {
          "internalType": "address",
          "name": "account",
          "type": "address"
        }
      ],
      "name": "addDistributor",
      "outputs": [],
      "stateMutability": "nonpayable",
      "type": "function"
    },
    {
      "inputs": [
        {
          "internalType": "address",
          "name": "account",
          "type": "address"
        }
      ],
      "name": "addFarmer",
      "outputs": [],
      "stateMutability": "nonpayable",
      "type": "function"
    },
    {
      "inputs": [
        {
          "internalType": "address",
          "name": "account",
          "type": "address"
        }
      ],
      "name": "addRetailer",
      "outputs": [],
      "stateMutability": "nonpayable",
      "type": "function"
    },
    {
      "inputs": [
        {
          "internalType": "address",
          "name": "account",
          "type": "address"
        }
      ],
      "name": "isConsumer",
      "outputs": [
        {
          "internalType": "bool",
          "name": "",
          "type": "bool"
        }
      ],
      "stateMutability": "view",
      "type": "function",
      "constant": true
    },
    {
      "inputs": [
        {
          "internalType": "address",
          "name": "account",
          "type": "address"
        }
      ],
      "name": "isDistributor",
      "outputs": [
        {
          "internalType": "bool",
          "name": "",
          "type": "bool"
        }
      ],
      "stateMutability": "view",
      "type": "function",
      "constant": true
    },
    {
      "inputs": [
        {
          "internalType": "address",
          "name": "account",
          "type": "address"
        }
      ],
      "name": "isFarmer",
      "outputs": [
        {
          "internalType": "bool",
          "name": "",
          "type": "bool"
        }
      ],
      "stateMutability": "view",
      "type": "function",
      "constant": true
    },
    {
      "inputs": [
        {
          "internalType": "address",
          "name": "account",
          "type": "address"
        }
      ],
      "name": "isRetailer",
      "outputs": [
        {
          "internalType": "bool",
          "name": "",
          "type": "bool"
        }
      ],
      "stateMutability": "view",
      "type": "function",
      "constant": true
    },
    {
      "inputs": [],
      "name": "renounceConsumer",
      "outputs": [],
      "stateMutability": "nonpayable",
      "type": "function"
    },
    {
      "inputs": [],
      "name": "renounceDistributor",
      "outputs": [],
      "stateMutability": "nonpayable",
      "type": "function"
    },
    {
      "inputs": [],
      "name": "renounceFarmer",
      "outputs": [],
      "stateMutability": "nonpayable",
      "type": "function"
    },
    {
      "inputs": [],
      "name": "renounceRetailer",
      "outputs": [],
      "stateMutability": "nonpayable",
      "type": "function"
    },
    {
      "inputs": [],
      "name": "kill",
      "outputs": [],
      "stateMutability": "nonpayable",
      "type": "function"
    },
    {
      "inputs": [
        {
          "internalType": "uint256",
          "name": "_upc",
          "type": "uint256"
        },
        {
          "internalType": "address",
          "name": "_originFarmerID",
          "type": "address"
        },
        {
          "internalType": "string",
          "name": "_originFarmName",
          "type": "string"
        },
        {
          "internalType": "string",
          "name": "_originFarmInformation",
          "type": "string"
        },
        {
          "internalType": "string",
          "name": "_originFarmLatitude",
          "type": "string"
        },
        {
          "internalType": "string",
          "name": "_originFarmLongitude",
          "type": "string"
        },
        {
          "internalType": "string",
          "name": "_productNotes",
          "type": "string"
        }
      ],
      "name": "harvestItem",
      "outputs": [],
      "stateMutability": "nonpayable",
      "type": "function"
    },
    {
      "inputs": [
        {
          "internalType": "uint256",
          "name": "_upc",
          "type": "uint256"
        }
      ],
      "name": "processItem",
      "outputs": [],
      "stateMutability": "nonpayable",
      "type": "function"
    },
    {
      "inputs": [
        {
          "internalType": "uint256",
          "name": "_upc",
          "type": "uint256"
        }
      ],
      "name": "packItem",
      "outputs": [],
      "stateMutability": "nonpayable",
      "type": "function"
    },
    {
      "inputs": [
        {
          "internalType": "uint256",
          "name": "_upc",
          "type": "uint256"
        },
        {
          "internalType": "uint256",
          "name": "_price",
          "type": "uint256"
        }
      ],
      "name": "sellItem",
      "outputs": [],
      "stateMutability": "nonpayable",
      "type": "function"
    },
    {
      "inputs": [
        {
          "internalType": "uint256",
          "name": "_upc",
          "type": "uint256"
        }
      ],
      "name": "buyItem",
      "outputs": [],
      "stateMutability": "payable",
      "type": "function",
      "payable": true
    },
    {
      "inputs": [
        {
          "internalType": "uint256",
          "name": "_upc",
          "type": "uint256"
        }
      ],
      "name": "shipItem",
      "outputs": [],
      "stateMutability": "nonpayable",
      "type": "function"
    },
    {
      "inputs": [
        {
          "internalType": "uint256",
          "name": "_upc",
          "type": "uint256"
        }
      ],
      "name": "receiveItem",
      "outputs": [],
      "stateMutability": "nonpayable",
      "type": "function"
    },
    {
      "inputs": [
        {
          "internalType": "uint256",
          "name": "_upc",
          "type": "uint256"
        }
      ],
      "name": "purchaseItem",
      "outputs": [],
      "stateMutability": "nonpayable",
      "type": "function"
    },
    {
      "inputs": [
        {
          "internalType": "uint256",
          "name": "_upc",
          "type": "uint256"
        }
      ],
      "name": "fetchItemBufferOne",
      "outputs": [
        {
          "internalType": "uint256",
          "name": "itemSKU",
          "type": "uint256"
        },
        {
          "internalType": "uint256",
          "name": "itemUPC",
          "type": "uint256"
        },
        {
          "internalType": "address",
          "name": "ownerID",
          "type": "address"
        },
        {
          "internalType": "address",
          "name": "originFarmerID",
          "type": "address"
        },
        {
          "internalType": "string",
          "name": "originFarmName",
          "type": "string"
        },
        {
          "internalType": "string",
          "name": "originFarmInformation",
          "type": "string"
        },
        {
          "internalType": "string",
          "name": "originFarmLatitude",
          "type": "string"
        },
        {
          "internalType": "string",
          "name": "originFarmLongitude",
          "type": "string"
        }
      ],
      "stateMutability": "view",
      "type": "function",
      "constant": true
    },
    {
      "inputs": [
        {
          "internalType": "uint256",
          "name": "_upc",
          "type": "uint256"
        }
      ],
      "name": "fetchItemBufferTwo",
      "outputs": [
        {
          "internalType": "uint256",
          "name": "itemSKU",
          "type": "uint256"
        },
        {
          "internalType": "uint256",
          "name": "itemUPC",
          "type": "uint256"
        },
        {
          "internalType": "uint256",
          "name": "productID",
          "type": "uint256"
        },
        {
          "internalType": "string",
          "name": "productNotes",
          "type": "string"
        },
        {
          "internalType": "uint256",
          "name": "productPrice",
          "type": "uint256"
        },
        {
          "internalType": "uint256",
          "name": "itemState",
          "type": "uint256"
        },
        {
          "internalType": "address",
          "name": "distributorID",
          "type": "address"
        },
        {
          "internalType": "address",
          "name": "retailerID",
          "type": "address"
        },
        {
          "internalType": "address",
          "name": "consumerID",
          "type": "address"
        }
      ],
      "stateMutability": "view",
      "type": "function",
      "constant": true
    }
  ],
  "bytecode": "0x608060405262000015336200009f60201b60201c565b62000026336200010060201b60201c565b62000037336200016160201b60201c565b6200004833620001c260201b60201c565b33600460006101000a81548173ffffffffffffffffffffffffffffffffffffffff021916908373ffffffffffffffffffffffffffffffffffffffff160217905550600160068190555060016005819055506200036c565b620000ba8160006200022360201b620018621790919060201c565b8073ffffffffffffffffffffffffffffffffffffffff167f2e0ded4123377a3c2bc9a26f1717655a129e2f20752924d42e730ec89c83dbd060405160405180910390a250565b6200011b8160016200022360201b620018621790919060201c565b8073ffffffffffffffffffffffffffffffffffffffff167fddbf200aa634dc3fb81cfd68583dd1040d1c751d335e1d86b631bde3e977fea860405160405180910390a250565b6200017c8160026200022360201b620018621790919060201c565b8073ffffffffffffffffffffffffffffffffffffffff167f71ae26cad02663e3d92efd6ec56031a80d74a20c0ab4183faa8bf262261c9baa60405160405180910390a250565b620001dd8160036200022360201b620018621790919060201c565b8073ffffffffffffffffffffffffffffffffffffffff167f28b26e7a3d20aedbc5f8f2ebf7da671c0491723a2b78f47a097b0e46dee0714260405160405180910390a250565b600073ffffffffffffffffffffffffffffffffffffffff168173ffffffffffffffffffffffffffffffffffffffff1614156200025e57600080fd5b620002708282620002d960201b60201c565b156200027b57600080fd5b60018260000160008373ffffffffffffffffffffffffffffffffffffffff1673ffffffffffffffffffffffffffffffffffffffff16815260200190815260200160002060006101000a81548160ff0219169083151502179055505050565b60008073ffffffffffffffffffffffffffffffffffffffff168273ffffffffffffffffffffffffffffffffffffffff1614156200031557600080fd5b8260000160008373ffffffffffffffffffffffffffffffffffffffff1673ffffffffffffffffffffffffffffffffffffffff16815260200190815260200160002060009054906101000a900460ff16905092915050565b611edd806200037c6000396000f3fe6080604052600436106101405760003560e01c806380fc0ce4116100b6578063bdd8a6a81161006f578063bdd8a6a8146108aa578063d38ea5bf14610bf8578063db0e6a2f14610c33578063e7fb74c714610c4a578063f30fc48014610c78578063f61c899a14610cb357610140565b806380fc0ce4146106d2578063834ff739146106e95780638ec4f505146107505780638f0c86fa146107a1578063a26be99914610808578063b94290691461084357610140565b806361e6982d1161010857806361e6982d14610294578063644241db146102ab57806366225ff9146102c25780637250e224146103f057806377c459131461044157806380c3f96d1461068157610140565b8063112940f9146101455780632d9235611461019657806341c0e1b5146101db57806349dae766146101f25780635da09b881461022d575b600080fd5b34801561015157600080fd5b506101946004803603602081101561016857600080fd5b81019080803573ffffffffffffffffffffffffffffffffffffffff169060200190929190505050610cee565b005b3480156101a257600080fd5b506101d9600480360360408110156101b957600080fd5b810190808035906020019092919080359060200190929190505050610d0c565b005b3480156101e757600080fd5b506101f0610d10565b005b3480156101fe57600080fd5b5061022b6004803603602081101561021557600080fd5b8101908080359060200190929190505050610da3565b005b34801561023957600080fd5b5061027c6004803603602081101561025057600080fd5b81019080803573ffffffffffffffffffffffffffffffffffffffff169060200190929190505050610da6565b60405180821515815260200191505060405180910390f35b3480156102a057600080fd5b506102a9610dc3565b005b3480156102b757600080fd5b506102c0610dce565b005b3480156102ce57600080fd5b506102fb600480360360208110156102e557600080fd5b8101908080359060200190929190505050610dd9565b604051808a8152602001898152602001888152602001806020018781526020018681526020018573ffffffffffffffffffffffffffffffffffffffff1681526020018473ffffffffffffffffffffffffffffffffffffffff1681526020018373ffffffffffffffffffffffffffffffffffffffff168152602001828103825288818151815260200191508051906020019080838360005b838110156103ad578082015181840152602081019050610392565b50505050905090810190601f1680156103da5780820380516001836020036101000a031916815260200191505b509a505050505050505050505060405180910390f35b3480156103fc57600080fd5b5061043f6004803603602081101561041357600080fd5b81019080803573ffffffffffffffffffffffffffffffffffffffff169060200190929190505050610df5565b005b34801561044d57600080fd5b5061047a6004803603602081101561046457600080fd5b8101908080359060200190929190505050610e13565b604051808981526020018881526020018773ffffffffffffffffffffffffffffffffffffffff1681526020018673ffffffffffffffffffffffffffffffffffffffff16815260200180602001806020018060200180602001858103855289818151815260200191508051906020019080838360005b8381101561050a5780820151818401526020810190506104ef565b50505050905090810190601f1680156105375780820380516001836020036101000a031916815260200191505b50858103845288818151815260200191508051906020019080838360005b83811015610570578082015181840152602081019050610555565b50505050905090810190601f16801561059d5780820380516001836020036101000a031916815260200191505b50858103835287818151815260200191508051906020019080838360005b838110156105d65780820151818401526020810190506105bb565b50505050905090810190601f1680156106035780820380516001836020036101000a031916815260200191505b50858103825286818151815260200191508051906020019080838360005b8381101561063c578082015181840152602081019050610621565b50505050905090810190601f1680156106695780820380516001836020036101000a031916815260200191505b509c5050505050505050505050505060405180910390f35b34801561068d57600080fd5b506106d0600480360360208110156106a457600080fd5b81019080803573ffffffffffffffffffffffffffffffffffffffff1690602001909291905050506113f0565b005b3480156106de57600080fd5b506106e761140e565b005b3480156106f557600080fd5b506107386004803603602081101561070c57600080fd5b81019080803573ffffffffffffffffffffffffffffffffffffffff169060200190929190505050611419565b60405180821515815260200191505060405180910390f35b34801561075c57600080fd5b5061079f6004803603602081101561077357600080fd5b81019080803573ffffffffffffffffffffffffffffffffffffffff169060200190929190505050611436565b005b3480156107ad57600080fd5b506107f0600480360360208110156107c457600080fd5b81019080803573ffffffffffffffffffffffffffffffffffffffff169060200190929190505050611454565b60405180821515815260200191505060405180910390f35b34801561081457600080fd5b506108416004803603602081101561082b57600080fd5b8101908080359060200190929190505050611471565b005b34801561084f57600080fd5b506108926004803603602081101561086657600080fd5b81019080803573ffffffffffffffffffffffffffffffffffffffff169060200190929190505050611474565b60405180821515815260200191505060405180910390f35b3480156108b657600080fd5b50610bf6600480360360e08110156108cd57600080fd5b8101908080359060200190929190803573ffffffffffffffffffffffffffffffffffffffff1690602001909291908035906020019064010000000081111561091457600080fd5b82018360208201111561092657600080fd5b8035906020019184600183028401116401000000008311171561094857600080fd5b91908080601f016020809104026020016040519081016040528093929190818152602001838380828437600081840152601f19601f820116905080830192505050505050509192919290803590602001906401000000008111156109ab57600080fd5b8201836020820111156109bd57600080fd5b803590602001918460018302840111640100000000831117156109df57600080fd5b91908080601f016020809104026020016040519081016040528093929190818152602001838380828437600081840152601f19601f82011690508083019250505050505050919291929080359060200190640100000000811115610a4257600080fd5b820183602082011115610a5457600080fd5b80359060200191846001830284011164010000000083111715610a7657600080fd5b91908080601f016020809104026020016040519081016040528093929190818152602001838380828437600081840152601f19601f82011690508083019250505050505050919291929080359060200190640100000000811115610ad957600080fd5b820183602082011115610aeb57600080fd5b80359060200191846001830284011164010000000083111715610b0d57600080fd5b91908080601f016020809104026020016040519081016040528093929190818152602001838380828437600081840152601f19601f82011690508083019250505050505050919291929080359060200190640100000000811115610b7057600080fd5b820183602082011115610b8257600080fd5b80359060200191846001830284011164010000000083111715610ba457600080fd5b91908080601f016020809104026020016040519081016040528093929190818152602001838380828437600081840152601f19601f820116905080830192505050505050509192919290505050611491565b005b348015610c0457600080fd5b50610c3160048036036020811015610c1b57600080fd5b810190808035906020019092919050505061184b565b005b348015610c3f57600080fd5b50610c4861184e565b005b610c7660048036036020811015610c6057600080fd5b8101908080359060200190929190505050611859565b005b348015610c8457600080fd5b50610cb160048036036020811015610c9b57600080fd5b810190808035906020019092919050505061185c565b005b348015610cbf57600080fd5b50610cec60048036036020811015610cd657600080fd5b810190808035906020019092919050505061185f565b005b610cf733611419565b610d0057600080fd5b610d098161190e565b50565b5050565b600460009054906101000a900473ffffffffffffffffffffffffffffffffffffffff1673ffffffffffffffffffffffffffffffffffffffff163373ffffffffffffffffffffffffffffffffffffffff161415610da157600460009054906101000a900473ffffffffffffffffffffffffffffffffffffffff1673ffffffffffffffffffffffffffffffffffffffff16ff5b565b50565b6000610dbc82600261196890919063ffffffff16565b9050919050565b610dcc336119fa565b565b610dd733611a54565b565b6000806000606060008060008060009193959799909294969850565b610dfe33611454565b610e0757600080fd5b610e1081611aae565b50565b600080600080606080606080610e27611d1b565b600760008b8152602001908152602001600020604051806101e001604052908160008201548152602001600182015481526020016002820160009054906101000a900473ffffffffffffffffffffffffffffffffffffffff1673ffffffffffffffffffffffffffffffffffffffff1673ffffffffffffffffffffffffffffffffffffffff1681526020016003820160009054906101000a900473ffffffffffffffffffffffffffffffffffffffff1673ffffffffffffffffffffffffffffffffffffffff1673ffffffffffffffffffffffffffffffffffffffff168152602001600482018054600181600116156101000203166002900480601f016020809104026020016040519081016040528092919081815260200182805460018160011615610100020316600290048015610f9f5780601f10610f7457610100808354040283529160200191610f9f565b820191906000526020600020905b815481529060010190602001808311610f8257829003601f168201915b50505050508152602001600582018054600181600116156101000203166002900480601f0160208091040260200160405190810160405280929190818152602001828054600181600116156101000203166002900480156110415780601f1061101657610100808354040283529160200191611041565b820191906000526020600020905b81548152906001019060200180831161102457829003601f168201915b50505050508152602001600682018054600181600116156101000203166002900480601f0160208091040260200160405190810160405280929190818152602001828054600181600116156101000203166002900480156110e35780601f106110b8576101008083540402835291602001916110e3565b820191906000526020600020905b8154815290600101906020018083116110c657829003601f168201915b50505050508152602001600782018054600181600116156101000203166002900480601f0160208091040260200160405190810160405280929190818152602001828054600181600116156101000203166002900480156111855780601f1061115a57610100808354040283529160200191611185565b820191906000526020600020905b81548152906001019060200180831161116857829003601f168201915b5050505050815260200160088201548152602001600982018054600181600116156101000203166002900480601f0160208091040260200160405190810160405280929190818152602001828054600181600116156101000203166002900480156112315780601f1061120657610100808354040283529160200191611231565b820191906000526020600020905b81548152906001019060200180831161121457829003601f168201915b50505050508152602001600a8201548152602001600b820160009054906101000a900460ff16600781111561126257fe5b600781111561126d57fe5b8152602001600b820160019054906101000a900473ffffffffffffffffffffffffffffffffffffffff1673ffffffffffffffffffffffffffffffffffffffff1673ffffffffffffffffffffffffffffffffffffffff168152602001600c820160009054906101000a900473ffffffffffffffffffffffffffffffffffffffff1673ffffffffffffffffffffffffffffffffffffffff1673ffffffffffffffffffffffffffffffffffffffff168152602001600d820160009054906101000a900473ffffffffffffffffffffffffffffffffffffffff1673ffffffffffffffffffffffffffffffffffffffff1673ffffffffffffffffffffffffffffffffffffffff16815250509050600073ffffffffffffffffffffffffffffffffffffffff16816040015173ffffffffffffffffffffffffffffffffffffffff1614156113b357600080fd5b80600001519850806020015197508060400151965080606001519550806080015194508060c0015192508060e00151915050919395975091939597565b6113f933611474565b61140257600080fd5b61140b81611b08565b50565b61141733611b62565b565b600061142f82600361196890919063ffffffff16565b9050919050565b61143f33610da6565b61144857600080fd5b61145181611bbc565b50565b600061146a82600161196890919063ffffffff16565b9050919050565b50565b600061148a82600061196890919063ffffffff16565b9050919050565b61149a33611474565b6114a357600080fd5b6000876006540290506114b4611d1b565b604051806101e0016040528060065481526020018a81526020013373ffffffffffffffffffffffffffffffffffffffff1681526020018973ffffffffffffffffffffffffffffffffffffffff168152602001888152602001878152602001868152602001858152602001838152602001848152602001600081526020016000600781111561153e57fe5b8152602001600073ffffffffffffffffffffffffffffffffffffffff168152602001600073ffffffffffffffffffffffffffffffffffffffff168152602001600073ffffffffffffffffffffffffffffffffffffffff16815250905080600760008b8152602001908152602001600020600082015181600001556020820151816001015560408201518160020160006101000a81548173ffffffffffffffffffffffffffffffffffffffff021916908373ffffffffffffffffffffffffffffffffffffffff16021790555060608201518160030160006101000a81548173ffffffffffffffffffffffffffffffffffffffff021916908373ffffffffffffffffffffffffffffffffffffffff160217905550608082015181600401908051906020019061166c929190611e0a565b5060a0820151816005019080519060200190611689929190611e0a565b5060c08201518160060190805190602001906116a6929190611e0a565b5060e08201518160070190805190602001906116c3929190611e0a565b5061010082015181600801556101208201518160090190805190602001906116ec929190611e0a565b5061014082015181600a015561016082015181600b0160006101000a81548160ff0219169083600781111561171d57fe5b021790555061018082015181600b0160016101000a81548173ffffffffffffffffffffffffffffffffffffffff021916908373ffffffffffffffffffffffffffffffffffffffff1602179055506101a082015181600c0160006101000a81548173ffffffffffffffffffffffffffffffffffffffff021916908373ffffffffffffffffffffffffffffffffffffffff1602179055506101c082015181600d0160006101000a81548173ffffffffffffffffffffffffffffffffffffffff021916908373ffffffffffffffffffffffffffffffffffffffff1602179055509050506001600654016006819055507f8e55ccfc9778ff8eba1646d765cf1982537ce0f9257054a17b48aad745250183896040518082815260200191505060405180910390a1505050505050505050565b50565b61185733611c16565b565b50565b50565b50565b600073ffffffffffffffffffffffffffffffffffffffff168173ffffffffffffffffffffffffffffffffffffffff16141561189c57600080fd5b6118a68282611968565b156118b057600080fd5b60018260000160008373ffffffffffffffffffffffffffffffffffffffff1673ffffffffffffffffffffffffffffffffffffffff16815260200190815260200160002060006101000a81548160ff0219169083151502179055505050565b61192281600361186290919063ffffffff16565b8073ffffffffffffffffffffffffffffffffffffffff167f28b26e7a3d20aedbc5f8f2ebf7da671c0491723a2b78f47a097b0e46dee0714260405160405180910390a250565b60008073ffffffffffffffffffffffffffffffffffffffff168273ffffffffffffffffffffffffffffffffffffffff1614156119a357600080fd5b8260000160008373ffffffffffffffffffffffffffffffffffffffff1673ffffffffffffffffffffffffffffffffffffffff16815260200190815260200160002060009054906101000a900460ff16905092915050565b611a0e816003611c7090919063ffffffff16565b8073ffffffffffffffffffffffffffffffffffffffff167fe3f5ed5f263f1f01764a96edfc7d025f511ec5f7d180e8816908b78bcf74f09860405160405180910390a250565b611a68816001611c7090919063ffffffff16565b8073ffffffffffffffffffffffffffffffffffffffff167f126174f6cf49c81cdb4a9214c6b8f037bef55b4ec31e4fc776cea2a1c8a88d5960405160405180910390a250565b611ac281600161186290919063ffffffff16565b8073ffffffffffffffffffffffffffffffffffffffff167fddbf200aa634dc3fb81cfd68583dd1040d1c751d335e1d86b631bde3e977fea860405160405180910390a250565b611b1c81600061186290919063ffffffff16565b8073ffffffffffffffffffffffffffffffffffffffff167f2e0ded4123377a3c2bc9a26f1717655a129e2f20752924d42e730ec89c83dbd060405160405180910390a250565b611b76816000611c7090919063ffffffff16565b8073ffffffffffffffffffffffffffffffffffffffff167fa5e0f060af304ab17dd418c7927e3da3ae7868189bf387aee09ab179ccc572f260405160405180910390a250565b611bd081600261186290919063ffffffff16565b8073ffffffffffffffffffffffffffffffffffffffff167f71ae26cad02663e3d92efd6ec56031a80d74a20c0ab4183faa8bf262261c9baa60405160405180910390a250565b611c2a816002611c7090919063ffffffff16565b8073ffffffffffffffffffffffffffffffffffffffff167fdb7176e79cffef81cb01767dd0447a0b24bb72ca9778d4b245581086b2a7e6db60405160405180910390a250565b600073ffffffffffffffffffffffffffffffffffffffff168173ffffffffffffffffffffffffffffffffffffffff161415611caa57600080fd5b611cb48282611968565b611cbd57600080fd5b60008260000160008373ffffffffffffffffffffffffffffffffffffffff1673ffffffffffffffffffffffffffffffffffffffff16815260200190815260200160002060006101000a81548160ff0219169083151502179055505050565b604051806101e001604052806000815260200160008152602001600073ffffffffffffffffffffffffffffffffffffffff168152602001600073ffffffffffffffffffffffffffffffffffffffff1681526020016060815260200160608152602001606081526020016060815260200160008152602001606081526020016000815260200160006007811115611dad57fe5b8152602001600073ffffffffffffffffffffffffffffffffffffffff168152602001600073ffffffffffffffffffffffffffffffffffffffff168152602001600073ffffffffffffffffffffffffffffffffffffffff1681525090565b828054600181600116156101000203166002900490600052602060002090601f016020900481019282601f10611e4b57805160ff1916838001178555611e79565b82800160010185558215611e79579182015b82811115611e78578251825591602001919060010190611e5d565b5b509050611e869190611e8a565b5090565b5b80821115611ea3576000816000905550600101611e8b565b509056fea2646970667358221220d6938a523f2b01e14908d506b6649f51cd23762b7a305f0e34d93ed068e7d1d764736f6c634300060c0033",
  "immutableReferences": {},
  "source": "// SPDX-License-Identifier: MIT\npragma solidity >=0.6.12;\n\nimport \"../coffeecore/Ownable.sol\";\nimport \"../coffeeaccesscontrol/RetailerRole.sol\";\n\n\ncontract SupplyChain is FarmerRole, DistributorRole, RetailerRole, ConsumerRole {\n    enum State {\n        Harvested, // 0\n        Processed, // 1\n        Packed, // 2\n        ForSale, // 3\n        Sold, // 4\n        Shipped, // 5\n        Received, // 6\n        Purchased  // 7\n    }\n\n    struct Item {\n        uint sku;  // Stock Keeping Unit (SKU)\n        uint upc; // Universal Product Code (UPC), generated by the Farmer, goes on the package, can be verified by the Consumer\n        address ownerID; // Address of the current owner as the product moves through 8 stages\n        address originFarmerID;\n        string originFarmName;\n        string originFarmInformation;\n        string originFarmLatitude;\n        string originFarmLongitude;\n        uint productID;\n        string productNotes;\n        uint productPrice;\n        State itemState;\n        address distributorID;\n        address retailerID;\n        address consumerID;\n    }\n\n    // --------\n\n    address payable owner;\n    uint upc;\n    uint sku;\n    // UPC to an Item\n    mapping(uint => Item) items;\n    mapping(uint => string[]) itemsHistory;\n\n    State constant defaultState = State.Harvested;\n\n    event Harvested(uint upc);\n    event Processed(uint upc);\n    event Packed(uint upc);\n    event ForSale(uint upc);\n    event Sold(uint upc);\n    event Shipped(uint upc);\n    event Received(uint upc);\n    event Purchased(uint upc);\n\n    modifier onlyOwner() {\n        require(msg.sender == owner);\n        _;\n    }\n\n    modifier verifyCaller (address _address) {\n        require(msg.sender == _address);\n        _;\n    }\n\n    modifier paidEnough(uint _price) {\n        require(msg.value >= _price);\n        _;\n    }\n\n    modifier checkValue(uint _upc) {\n        _;\n        uint _price = items[_upc].productPrice;\n        uint amountToReturn = msg.value - _price;\n        address payable consumerAddress = payable(address(uint160(items[_upc].consumerID)));\n        consumerAddress.transfer(amountToReturn);\n    }\n\n    modifier harvested(uint _upc) {\n        require(items[_upc].itemState == State.Harvested);\n        _;\n    }\n\n    modifier processed(uint _upc) {\n        require(items[_upc].itemState == State.Processed);\n        _;\n    }\n\n    modifier packed(uint _upc) {\n        require(items[_upc].itemState == State.Packed);\n        _;\n    }\n\n    modifier forSale(uint _upc) {\n        require(items[_upc].itemState == State.ForSale);\n        _;\n    }\n\n    modifier sold(uint _upc) {\n        require(items[_upc].itemState == State.Sold);\n        _;\n    }\n\n    modifier shipped(uint _upc) {\n        require(items[_upc].itemState == State.Shipped);\n        _;\n    }\n\n    modifier received(uint _upc) {\n        require(items[_upc].itemState == State.Received);\n        _;\n    }\n\n    modifier purchased(uint _upc) {\n        require(items[_upc].itemState == State.Purchased);\n        _;\n    }\n\n    constructor() public payable {\n        owner = payable(msg.sender);\n        sku = 1;\n        upc = 1;\n    }\n\n    function kill() public {\n        if (msg.sender == owner) {\n            selfdestruct(owner);\n        }\n    }\n\n    // Define a function 'harvestItem' that allows a farmer to mark an item 'Harvested'\n    function harvestItem(\n        uint _upc,\n        address _originFarmerID,\n        string memory _originFarmName,\n        string memory _originFarmInformation,\n        string memory _originFarmLatitude,\n        string memory _originFarmLongitude,\n        string memory _productNotes) onlyFarmer public\n    {\n        // TODO: check that item with that _upc is not defined yet\n\n        uint product_id = sku * _upc;\n        Item memory item = Item(\n            sku,\n            _upc,\n            msg.sender,\n            _originFarmerID,\n            _originFarmName,\n            _originFarmInformation,\n            _originFarmLatitude,\n            _originFarmLongitude,\n            product_id,\n            _productNotes,\n            0,\n            defaultState,\n            address(0),\n            address(0),\n            address(0)\n        );\n\n        items[_upc] = item;\n        // Increment sku\n        sku = sku + 1;\n\n\n        emit Harvested(_upc);\n    }\n\n    function processItem(uint _upc) public\n        // Call modifier to check if upc has passed previous supply chain stage\n\n        // Call modifier to verify caller of this function\n\n    {\n        // Update the appropriate fields\n\n        // Emit the appropriate event\n\n    }\n\n    // Define a function 'packItem' that allows a farmer to mark an item 'Packed'\n    function packItem(uint _upc) public\n        // Call modifier to check if upc has passed previous supply chain stage\n\n        // Call modifier to verify caller of this function\n\n    {\n        // Update the appropriate fields\n\n        // Emit the appropriate event\n\n    }\n\n    // Define a function 'sellItem' that allows a farmer to mark an item 'ForSale'\n    function sellItem(uint _upc, uint _price) public\n        // Call modifier to check if upc has passed previous supply chain stage\n\n        // Call modifier to verify caller of this function\n\n    {\n        // Update the appropriate fields\n\n        // Emit the appropriate event\n\n    }\n\n    // Define a function 'buyItem' that allows the disributor to mark an item 'Sold'\n    // Use the above defined modifiers to check if the item is available for sale, if the buyer has paid enough,\n    // and any excess ether sent is refunded back to the buyer\n    function buyItem(uint _upc) public payable\n        // Call modifier to check if upc has passed previous supply chain stage\n\n        // Call modifer to check if buyer has paid enough\n\n        // Call modifer to send any excess ether back to buyer\n\n    {\n\n        // Update the appropriate fields - ownerID, distributorID, itemState\n\n        // Transfer money to farmer\n\n        // emit the appropriate event\n\n    }\n\n    // Define a function 'shipItem' that allows the distributor to mark an item 'Shipped'\n    // Use the above modifers to check if the item is sold\n    function shipItem(uint _upc) public\n        // Call modifier to check if upc has passed previous supply chain stage\n\n        // Call modifier to verify caller of this function\n\n    {\n        // Update the appropriate fields\n\n        // Emit the appropriate event\n\n    }\n\n    // Define a function 'receiveItem' that allows the retailer to mark an item 'Received'\n    // Use the above modifiers to check if the item is shipped\n    function receiveItem(uint _upc) public\n        // Call modifier to check if upc has passed previous supply chain stage\n\n        // Access Control List enforced by calling Smart Contract / DApp\n    {\n        // Update the appropriate fields - ownerID, retailerID, itemState\n\n        // Emit the appropriate event\n\n    }\n\n    // Define a function 'purchaseItem' that allows the consumer to mark an item 'Purchased'\n    // Use the above modifiers to check if the item is received\n    function purchaseItem(uint _upc) public\n        // Call modifier to check if upc has passed previous supply chain stage\n\n        // Access Control List enforced by calling Smart Contract / DApp\n    {\n        // Update the appropriate fields - ownerID, consumerID, itemState\n\n        // Emit the appropriate event\n\n    }\n\n    // Define a function 'fetchItemBufferOne' that fetches the data\n    function fetchItemBufferOne(uint _upc) public view returns\n    (\n        uint itemSKU,\n        uint itemUPC,\n        address ownerID,\n        address originFarmerID,\n        string memory originFarmName,\n        string memory originFarmInformation,\n        string memory originFarmLatitude,\n        string memory originFarmLongitude\n    )\n    {\n        Item memory item = items[_upc];\n        require(item.ownerID != address(0));\n\n        itemSKU = item.sku;\n        itemUPC = item.upc;\n        ownerID = item.ownerID;\n        originFarmerID = item.originFarmerID;\n        originFarmName = item.originFarmName;\n        originFarmLatitude = item.originFarmLatitude;\n        originFarmLongitude = item.originFarmLongitude;\n\n        return\n        (\n        itemSKU,\n        itemUPC,\n        ownerID,\n        originFarmerID,\n        originFarmName,\n        originFarmInformation,\n        originFarmLatitude,\n        originFarmLongitude\n        );\n    }\n\n    // Define a function 'fetchItemBufferTwo' that fetches the data\n    function fetchItemBufferTwo(uint _upc) public view returns\n    (\n        uint itemSKU,\n        uint itemUPC,\n        uint productID,\n        string memory productNotes,\n        uint productPrice,\n        uint itemState,\n        address distributorID,\n        address retailerID,\n        address consumerID\n    )\n    {\n        // Assign values to the 9 parameters\n\n\n        return\n        (\n        itemSKU,\n        itemUPC,\n        productID,\n        productNotes,\n        productPrice,\n        itemState,\n        distributorID,\n        retailerID,\n        consumerID\n        );\n    }\n}\n",
  "sourcePath": "/Users/ngolub/workspace/learn/udacity/blockchain-dev/nd1309-Project-6b/contracts/coffeebase/SupplyChain.sol",
  "compiler": {
    "name": "solc",
    "version": "0.6.12+commit.27d51765.Emscripten.clang"
  },
  "schemaVersion": "3.3.3",
  "updatedAt": "2021-04-22T09:14:48.636Z",
  "networkType": "ethereum",
  "devdoc": {
    "kind": "dev",
    "methods": {},
    "version": 1
  },
  "userdoc": {
    "kind": "user",
    "methods": {},
    "version": 1
  }
}